:060000000A128A110C280F
:10000800FE00030EF0000A08F1000A128A11BD2949
:100018000A128A110F2883132830FD000130FE00D0
:10002800D630FF00203084000A128A119F210A125C
:100038008A11F90183010A128A11EF28F50075085F
:10004800F03983120313860086140A128A11CC2110
:100058000A128A118312031386150A128A11CC21F7
:100068000A128A118312031386110A128A11CC21EB
:100078000A128A118312031386107508F4000330DC
:100088000310F40DFF3E031D44280310740DF039CE
:10009800860086140A128A11CC210A128A11831248
:1000A800031386150A128A11CC210A128A118312A7
:1000B800031386110A128A11CC210A128A1183129B
:1000C8000313861086010800F03083160313860098
:1000D8008312031306150A128A11CC210A128A11F7
:1000E8008312031386150A128A11CC210A128A1167
:1000F800831203130608F039F4007408F900861116
:100108000A128A11CC210A128A1183120313861546
:100118000A128A11CC210A128A11831203130608C3
:10012800F40004300310F40CFF3E031D96287408F5
:100138000F397904F5007508F900861106110A12BD
:100148008A11CC210A128A118316031386017908B1
:100158000800F5007508F0398312031386000A12A7
:100168008A11CC210A128A118312031386150A12E6
:100178008A11CC210A128A118312031386110A12DA
:100188008A11CC210A128A117508F4000330031071
:10019800F40DFF3E031DCB280310740DF0398312B4
:1001A800031386000A128A11CC210A128A118312BB
:1001B800031386150A128A11CC210A128A11831296
:1001C800031386110A128A11CC210A128A1183128A
:1001D8000313860108000A128A11CC210A128A1117
:1001E8000A128A1155210A128A110F300A128A112D
:1001F800AD200A128A1133300A128A1122200A12FB
:100208008A1101300A128A1179210A128A110030E2
:100218000A128A1125210A128A1100300A128A113B
:1002280022200A128A118B170B168B1083160313C0
:100238008701AA3083120313870021290A128A1121
:100248000C28F7000A128A1168200A128A11F6008F
:100258007608F900770884008313000840380A12EA
:100268008A11AD200A128A11F8017808203E84000C
:10027800831300080A128A1122200A128A110130F7
:10028800F6007608F80708307802031C4C294D2937
:100298003929790880380A128A11AD200A128A1180
:1002A80008008316031386100611861183120313A0
:1002B800861006118611013083160313860020303C
:1002C8008312031386000A128A11CC210A128A119A
:1002D8008312031386150A128A11CC210A128A1175
:1002E80083120313861186010800F700F8018D298F
:1002F8007808770784000A128A11AE210A128A1137
:100308000A128A1122200A128A110130F600760890
:10031800F8077808770784000A128A11AE210A12B2
:100328008A11003A031D99299A297C2908007E0818
:100338008A007F0882000A128A119B210A128A11F8
:100348008000840A04087D0603190034FF0A031993
:10035800FE0A9F2901308A000408840A82070034B3
:100368005034723475346534623461342034333433
:1003780000348B1CC029C129C5298312031387099E
:100388008B1071088A00700E8300FE0E7E0E090025
:100398000D30F300FB30F200F20BD029F30BD0291B
:1003A800D52908000A340A340A340A3400341134CE
:0403B8000E340034CB
:08400000FF3FFF3FFF3FFF3FC0
:02400E00713F00
:00000001FF
