:100000000A128A11CB2F00308A000408840A820762
:1000100000345034723475346534623461342034C1
:040020003334003441
:100C9C00000008000A340A340A340A3400341134CF
:100CAC000E3400347E088A007F0882000A128A11F2
:100CBC0058260A128A118000840A04087D0603193A
:100CCC000034FF0A0319FE0A5C2E831603138801F5
:100CDC008312031388010230880088170A128A11C4
:100CEC004E260A128A118312031388130A128A11D0
:100CFC004E260A128A110800FB00FC01962E7C0875
:100D0C007B0784000A128A1103200A128A110A1224
:100D1C008A1140270A128A110130FA007A08FC075E
:100D2C007C087B0784000A128A1103200A128A119C
:100D3C00003A031DA22EA32E852E0800FB000A12DA
:100D4C008A1184270A128A11FA007A08FD007B089E
:100D5C0084008313000840380A128A1102270A12F1
:100D6C008A11FC017C08703E840000080A128A116A
:100D7C0040270A128A110130FA007A08FC07083061
:100D8C007C02031CCA2ECB2EB82E7D0880380A128A
:100D9C008A1102270A128A1108000A128A116B267C
:100DAC000A128A1183160313860183120313860118
:100DBC000F300A128A1102270A128A1101300A1204
:100DCC008A1182260A128A1100300A128A11A4266C
:100DDC000A128A1100300A128A1140270A128A114B
:100DEC000A128A1184270A128A11831203138600AD
:100DFC00FE2E0A128A110028F9007908F800043036
:100E0C000310F80CFF3E031D062F78080F398312D0
:100E1C00031388000A128A114E260A128A118312B1
:100E2C00031388170A128A114E260A128A1183128A
:100E3C00031388130A128A114E260A128A11790892
:100E4C000F398312031388000A128A114E260A12D4
:100E5C008A118312031388170A128A114E260A125A
:100E6C008A118312031388130A128A114E260A124E
:100E7C008A110800F9007908F80004300310F80C06
:100E8C00FF3E031D442F78080F398312031388008B
:100E9C0088160A128A114E260A128A11831203131B
:100EAC0088170A128A114E260A128A11831203130A
:100EBC0088130A128A114E260A128A1183120313FE
:100ECC00881279080F39880088160A128A114E2662
:100EDC000A128A118312031388170A128A114E26DA
:100EEC000A128A118312031388130A128A114E26CE
:100EFC000A128A1183120313881208000F3083160A
:100F0C00031388008312031308170A128A114E2642
:100F1C000A128A118312031388170A128A114E2699
:100F2C000A128A118312031308080F39F8000330D0
:100F3C000310F80DFF3E031D9E2F0310780DF039A2
:100F4C00F9007908FD0088130A128A114E260A123C
:100F5C008A118312031388170A128A114E260A1259
:100F6C008A118312031308080F397D04F8007808DE
:100F7C00FD00881308130A128A114E260A128A11D0
:100F8C008316031388017D0808000A128A11502663
:100F9C000A128A11F0000A128A1151260A128A11B9
:100FAC00F1000A128A1152260A128A11F2000A1250
:100FBC008A1153260A128A11F3000A128A11542636
:100FCC000A128A11F4000A128A1155260A128A1181
:100FDC00F5000A128A1156260A128A11F6000A1214
:100FEC008A1157260A128A11F700FD0183010A1291
:040FFC008A11D32E55
:08400000FF3FFF3FFF3FFF3FC0
:02400E00713F00
:00000001FF
