:100000000A128A11EE2F00308A000408840A82073F
:100010000034383462346934743473340034543402
:080020006534733474340034BC
:100CE60000340A340A340A34003411340E34003421
:100CF60001308312031388000A128A11D1260A12C0
:100D06008A11080002308312031388000A128A111E
:100D1600D1260A128A110800F10071088312031302
:100D260088000A128A11AD260A128A118312031349
:100D360088010800F10083120313871771088800E1
:100D46000A128A11AD260A128A1183120313880128
:100D5600871308008312031387161030F000F00B78
:100D6600B22E00008312031387121030F000F00B2E
:100D7600BA2E000008007E088A007F0882000A1248
:100D86008A11BE260A128A118000840A04087D068A
:100D960003190034FF0A0319FE0AC22E8312031335
:100DA60087160330F1009730F000F00BD82EF10BC8
:100DB600D82EDD2E8312031387120330F1009730ED
:100DC600F000F00BE42EF10BE42EE92E080083125E
:100DD60003130717C730F000F02EF00BEF2EF32E9B
:100DE600F42E8312031308087F39F0007008F1000F
:100DF600C730F000FE2EF00BFD2E012F022F7108DA
:100E06000800F300F401172F74087307F200720844
:100E16008400831300080A128A119D260A128A1179
:100E26000130F2007208F40708307402031C1C2F0C
:100E36001D2F072F0800F3007308031D232F242FEF
:100E46002D2F7208403E80380A128A118F260A1208
:100E56008A11392F7303031D312F322F392F720850
:100E660080380A128A118F260A128A110800F400A5
:100E7600F3014E2F7308740784000A128A110320A7
:100E86000A128A110A128A119D260A128A11013043
:100E9600F2007208F3077308740784000A128A11B5
:100EA60003200A128A11003A031D5A2F5B2F3D2F89
:100EB6000800F7000A128A11EA260A128A11F600B9
:100EC6007608F8000310F70D0310F70D0310F70D61
:100ED600770840380A128A118F260A128A11750875
:100EE6000A128A1104270A128A11780880380A120F
:100EF6008A118F260A128A11080083160313871295
:100F06008312031387128316031307138312031323
:100F1600071383160313871383120313871383168A
:100F2600031388018312031388010A128A117B2690
:100F36000A128A110A128A1185260A128A110630A5
:100F46000A128A118F260A128A110F300A128A1182
:100F56008F260A128A1138300A128A118F260A122F
:100F66008A1108000A128A1180270A128A11023091
:100F7600F9007908F20001300A128A111E270A12B6
:100F86008A1107300A128A113A270A128A11023088
:100F9600F9007908F20000300A128A111E270A1297
:100FA6008A1101300A128A113A270A128A11203050
:100FB600F9007908F50000300A128A115C270A1236
:100FC6008A1100300A128A113A270A128A11EA2F68
:100FD6000A128A11002883132830FD000630FE000D
:100FE6007330FF00203084000A128A11C2260A12CA
:0A0FF6008A1183010A128A11B52F37
:08400000FF3FFF3FFF3FFF3FC0
:02400E00713F00
:00000001FF
