:060000000A128A11CB2F49
:100F5A000A128A1100280A340A340A340A3400347C
:100F6A0011340E3400347E088A007F0882000A1287
:100F7A008A11B8270A128A118000840A04087D0699
:100F8A0003190034FF0A0319FE0ABC2F0A128A1138
:100F9A00B0270A128A11F0000A128A11B1270A121E
:100FAA008A11F1000A128A11B2270A128A11F20072
:100FBA000A128A11B3270A128A11F3000A128A1135
:100FCA00B4270A128A11F4000A128A11B5270A12E2
:100FDA008A11F5000A128A11B6270A128A11F60036
:100FEA000A128A11B7270A128A11F700F801830137
:060FFA000A128A11AD2F5E
:08400000FF3FFF3FFF3FFF3FC0
:02400E00713F00
:00000001FF
