:100000000A128A11CB2F00308A000408840A820762
:1000100000345034723475346534623461342034C1
:040020003334003441
:100C8000000008000A340A340A340A3400341134EB
:100C90000E3400347E088A007F0882000A128A110E
:100CA0004A260A128A118000840A04087D06031964
:100CB0000034FF0A0319FE0A4E2EFB00FC01712EC0
:100CC0007C087B0784000A128A1103200A128A1109
:100CD0000A128A1185270A128A110130FA007A084D
:100CE000FC077C087B0784000A128A1103200A1281
:100CF0008A11003A031D7D2E7E2E602E0800831679
:100D00000313861006118611831203138610061131
:100D100086110130831603138600203083120313DB
:100D200086000A128A1140260A128A1183120313BE
:100D300086150A128A1140260A128A118312031399
:100D40008611860108000A128A1140260A128A11A9
:100D50000A128A117F260A128A110F300A128A118A
:100D6000FE260A128A1133300A128A1185270A12C6
:100D70008A1101300A128A115D260A128A11003086
:100D80000A128A11CF260A128A1100300A128A1119
:100D900085270A128A11CB2E0A128A110028FB001D
:100DA0000A128A1140270A128A11FA007A08FD00F5
:100DB0007B0884008313000840380A128A11FE263B
:100DC0000A128A11FC017C08703E840000080A1295
:100DD0008A1185270A128A110130FA007A08FC0765
:100DE00008307C02031CF52EF62EE32E7D08803899
:100DF0000A128A11FE260A128A110800F9007908DF
:100E0000F0398312031386000A128A1140260A124F
:100E10008A118312031386150A128A1140260A12B8
:100E20008A118312031386110A128A1140260A12AC
:100E30008A117908F80003300310F80DFF3E031DF6
:100E40001C2F0310780DF0398312031386000A1249
:100E50008A1140260A128A118312031386150A1278
:100E60008A1140260A128A118312031386110A126C
:100E70008A1140260A128A11831203138601080080
:100E8000F0308316031386008312031306150A122B
:100E90008A1140260A128A118312031386150A1238
:100EA0008A1140260A128A11831203130608F039A8
:100EB000F8007808FD0086110A128A1140260A12ED
:100EC0008A118312031386150A128A1140260A1208
:100ED0008A11831203130608F80004300310F80C7B
:100EE000FF3E031D6E2F78080F397D04F900790845
:100EF000FD00861106110A128A1140260A128A1173
:100F00008316031386017D080800F9007908F0397B
:100F100083120313860086140A128A1140260A12CD
:100F20008A118312031386150A128A1140260A12A7
:100F30008A118312031386110A128A1140260A129B
:100F40008A118312031386107908F8000330031006
:100F5000F80DFF3E031DA72F0310780DF039860012
:100F600086140A128A1140260A128A118312031368
:100F700086150A128A1140260A128A118312031357
:100F800086110A128A1140260A128A11831203134B
:100F90008610860108000A128A1142260A128A1156
:100FA000F0000A128A1143260A128A11F1000A126D
:100FB0008A1144260A128A11F2000A128A11452661
:100FC0000A128A11F3000A128A1146260A128A119D
:100FD000F4000A128A1147260A128A11F5000A1231
:100FE0008A1148260A128A11F6000A128A11492625
:100FF0000A128A11F700FD0183010A128A11A32E39
:08400000FF3FFF3FFF3FFF3FC0
:02400E00713F00
:00000001FF
