:100000000A128A11FC2F00308A000408840A820731
:10001000003448346F346C34613420346D347534BA
:0A0020006E3464346F342134003470
:100CC000F60083120313881776080A128A11612727
:100CD0000A128A1183120313881308008312031364
:100CE00088161030F000F00B732E000083120313EF
:100CF00088121030F000F00B7B2E000008008312E9
:100D0000031308108810081188110A128A11AD26E1
:100D10000A128A118312031308148810081188110B
:100D20000A128A11AD260A128A11080083120313CF
:100D300008108810081188110A128A11AD260A12AB
:100D40008A118312031308108814081188110A12DB
:100D50008A11AD260A128A1108008312031388161D
:100D60000330F1009730F000F00BB42EF10BB42EED
:100D7000B92E8312031388120330F1009730F0006C
:100D8000F00BC02EF10BC02EC52E08000A128A11DE
:100D90001D270A128A110230FA007A08F600003084
:100DA0000A128A11DF260A128A1101300A128A11E8
:100DB000FB260A128A11DB2E0A128A110028F7007C
:100DC0007708031DE42EE52EEE2E7608403E80388F
:100DD0000A128A1161270A128A11FA2E7703031D5B
:100DE000F22EF32EFA2E760880380A128A11612725
:100DF0000A128A110800F800F9010F2F7908780704
:100E000084000A128A1103200A128A110A128A1116
:100E100060260A128A110130F7007708F90779086D
:100E2000780784000A128A1103200A128A11003AF4
:100E3000031D1B2F1C2FFE2E080083160313881280
:100E400083120313881283160313081383120313E8
:100E5000081383160313881383120313881383164E
:100E60000313081088100811881183120313081047
:100E700088100811881188110811881408100A12A6
:100E80008A11AD260A128A110A128A117F260A12C5
:100E90008A110A128A1196260A128A1128300A1219
:100EA0008A1161270A128A1106300A128A116127F3
:100EB0000A128A110F300A128A1161270A128A1146
:100EC0000800F300F5017308F10004300310F10C81
:100ED000FF3E031D662F71080F39F2007208F400FF
:100EE00073080F39F1007108F50001307405F10045
:100EF0008312031308087106FE397106880074080E
:100F0000F1000310710C0139F200F20D08087206AD
:100F1000FD39720688007408F10002300310F10CEC
:100F2000FF3E031D8E2F71080139F200F20DF20D04
:100F300008087206FB39720688007408F100033055
:100F40000310F10CFF3E031DA02F71080139F200C0
:100F5000F20DF20DF20D08087206F73972068800DC
:100F60000A128A116E260A128A1101307505F100E3
:100F70008312031308087106FE397106880075088C
:100F8000F1000310710C0139F200F20D080872062D
:100F9000FD39720688007508F10002300310F10C6B
:100FA000FF3E031DCE2F71080139F200F20DF20D44
:100FB00008087206FB39720688007508F1000330D4
:100FC0000310F10CFF3E031DE02F71080139F20000
:100FD000F20DF20DF20D08087206F739720688005C
:100FE0000A128A116E260A128A118312031308103C
:100FF000881008118811080083010A128A11C62E70
:08400000FF3FFF3FFF3FFF3FC0
:02400E00713F00
:00000001FF
